{"abi":[{"type":"function","name":"addCanditate","inputs":[{"name":"name","type":"string","internalType":"string"}],"outputs":[{"name":"","type":"bool","internalType":"bool"}],"stateMutability":"nonpayable"},{"type":"function","name":"candidate","inputs":[{"name":"","type":"uint256","internalType":"uint256"}],"outputs":[{"name":"name","type":"string","internalType":"string"},{"name":"voteCount","type":"uint256","internalType":"uint256"},{"name":"candidateId","type":"uint256","internalType":"uint256"}],"stateMutability":"view"},{"type":"function","name":"getWinner","inputs":[],"outputs":[{"name":"","type":"tuple","internalType":"struct Vote.Candidate","components":[{"name":"name","type":"string","internalType":"string"},{"name":"voteCount","type":"uint256","internalType":"uint256"},{"name":"candidateId","type":"uint256","internalType":"uint256"}]}],"stateMutability":"view"},{"type":"function","name":"registerVoter","inputs":[],"outputs":[],"stateMutability":"nonpayable"},{"type":"function","name":"voteforCanditate","inputs":[{"name":"_candidateID","type":"uint256","internalType":"uint256"}],"outputs":[{"name":"","type":"bool","internalType":"bool"}],"stateMutability":"nonpayable"},{"type":"function","name":"voter","inputs":[{"name":"","type":"address","internalType":"address"}],"outputs":[{"name":"voter","type":"address","internalType":"address"},{"name":"hasVoted","type":"bool","internalType":"bool"}],"stateMutability":"view"}],"bytecode":{"object":"0x6080604052348015600f57600080fd5b506109df8061001f6000396000f3fe608060405234801561001057600080fd5b50600436106100625760003560e01c80631de43c4b146100675780638e7ea5b214610092578063af0dbe54146100a7578063b06425f1146100fb578063eb5988501461011e578063ecb617d914610131575b600080fd5b61007a61007536600461058d565b610187565b604051610089939291906105ec565b60405180910390f35b61009a610231565b6040516100899190610611565b6100dc6100b536600461064d565b6002602052600090815260409020546001600160a01b03811690600160a01b900460ff1682565b604080516001600160a01b039093168352901515602083015201610089565b61010e610109366004610693565b61039d565b6040519015158152602001610089565b61010e61012c36600461058d565b610474565b610185604080518082018252338082526000602080840182815292825260029052929092209051815492511515600160a01b026001600160a81b03199093166001600160a01b039190911617919091179055565b005b6003602052600090815260409020805481906101a29061074c565b80601f01602080910402602001604051908101604052809291908181526020018280546101ce9061074c565b801561021b5780601f106101f05761010080835404028352916020019161021b565b820191906000526020600020905b8154815290600101906020018083116101fe57829003601f168201915b5050505050908060010154908060020154905083565b61025560405180606001604052806060815260200160008152602001600081525090565b600080805b6001548110156102c357816004828154811061027857610278610786565b90600052602060002090600302016001015411156102bb57600481815481106102a3576102a3610786565b90600052602060002090600302016001015491508092505b60010161025a565b50600482815481106102d7576102d7610786565b90600052602060002090600302016040518060600160405290816000820180546103009061074c565b80601f016020809104026020016040519081016040528092919081815260200182805461032c9061074c565b80156103795780601f1061034e57610100808354040283529160200191610379565b820191906000526020600020905b81548152906001019060200180831161035c57829003601f168201915b50505050508152602001600182015481526020016002820154815250509250505090565b60018054600091826103ae8361079c565b9091555050604080516060810182528381526000602080830182905260015483850181905282526003905291909120815181906103eb9082610812565b5060208281015160018084019190915560409384015160029093019290925581546000908152600391829052928320600480549384018155909352027f8a35acfbc15ff81a39ae7d344fd709f28e8600b4aa8c65c6b64bfe7fe36bd19b018061045483826108d4565b506001820154816001015560028201548160020155505060019050919050565b60008181526003602052604081206002015481036104d95760405162461bcd60e51b815260206004820152601860248201527f43616e64696461746520646f6573206e6f74206578697374000000000000000060448201526064015b60405180910390fd5b33600090815260026020526040902054600160a01b900460ff1615156001146105445760405162461bcd60e51b815260206004820152601a60248201527f204f4f707320796f752063616e277420766f746520747769636500000000000060448201526064016104d0565b336000908152600260209081526040808320805460ff60a01b1916600160a01b179055848352600390915281206001018054916105808361079c565b9091555060019392505050565b60006020828403121561059f57600080fd5b5035919050565b6000815180845260005b818110156105cc576020818501810151868301820152016105b0565b506000602082860101526020601f19601f83011685010191505092915050565b6060815260006105ff60608301866105a6565b60208301949094525060400152919050565b60208152600082516060602084015261062d60808401826105a6565b905060208401516040840152604084015160608401528091505092915050565b60006020828403121561065f57600080fd5b81356001600160a01b038116811461067657600080fd5b9392505050565b634e487b7160e01b600052604160045260246000fd5b6000602082840312156106a557600080fd5b813567ffffffffffffffff8111156106bc57600080fd5b8201601f810184136106cd57600080fd5b803567ffffffffffffffff8111156106e7576106e761067d565b604051601f8201601f19908116603f0116810167ffffffffffffffff811182821017156107165761071661067d565b60405281815282820160200186101561072e57600080fd5b81602084016020830137600091810160200191909152949350505050565b600181811c9082168061076057607f821691505b60208210810361078057634e487b7160e01b600052602260045260246000fd5b50919050565b634e487b7160e01b600052603260045260246000fd5b6000600182016107bc57634e487b7160e01b600052601160045260246000fd5b5060010190565b601f82111561080d57806000526020600020601f840160051c810160208510156107ea5750805b601f840160051c820191505b8181101561080a57600081556001016107f6565b50505b505050565b815167ffffffffffffffff81111561082c5761082c61067d565b6108408161083a845461074c565b846107c3565b6020601f821160018114610877576000831561085c5750848201515b600184901b600019600386901b1c198216175b85555061080a565b600084815260208120601f198516915b828110156108a75787850151825560209485019460019092019101610887565b50848210156108c55786840151600019600387901b60f8161c191681555b50505050600190811b01905550565b8181036108df575050565b6108e9825461074c565b67ffffffffffffffff8111156109015761090161067d565b61090f8161083a845461074c565b6000601f821160018114610941576000831561085c575081850154600184901b600019600386901b1c1982161761086f565b600085815260209020601f19841690600086815260209020845b8381101561097b578286015482556001958601959091019060200161095b565b50858310156109995781850154600019600388901b60f8161c191681555b5050505050600190811b0190555056fea2646970667358221220b2d22cea3a20b91e5e328365789c9a185b66350c06fba4dc74094a541d6c76d264736f6c634300081b0033","linkReferences":{}},"methodIdentifiers":{"addCanditate(string)":"b06425f1","candidate(uint256)":"1de43c4b","getWinner()":"8e7ea5b2","registerVoter()":"ecb617d9","voteforCanditate(uint256)":"eb598850","voter(address)":"af0dbe54"},"id":0}